:020000020000FC
:1000000000E00093C1000FEF0DBF08E00EBF80E8D5
:100010008093610084E08093610000E007B90FEFF6
:1000200008B90FEF04B900E005B90FEF0AB900E015
:100030000BB91FE730E050E060E006B11017E9F3BC
:100040000E945D0096B11917C1F3192F00FF0E949D
:10005000360001FF0E943C0002FF0E94420003FFA5
:100060000E94480004FF0E944E00E7CF33953031D4
:1000700009F430E03BB9E1CF3A95303009F43FE084
:100080003BB9DBCF5395503109F451E055B9D5CF89
:100090005A95503009F45FE055B9CFCF632F650F03
:1000A00060FD306161FD306262FD306463FD306887
:1000B00064FD50613BB955B908952FEF2A95203062
:1000C000E9F72FEF2A952030E9F72FEF2A95203016
:0400D000E9F70895AF
:00000001FF
